{
  "contractName": "AssuranceContract",
  "abi": [
    {
      "constant": true,
      "inputs": [],
      "name": "assuranceData",
      "outputs": [
        {
          "internalType": "address",
          "name": "owner",
          "type": "address"
        },
        {
          "internalType": "uint256",
          "name": "dateDebut",
          "type": "uint256"
        },
        {
          "internalType": "uint256",
          "name": "dateFin",
          "type": "uint256"
        },
        {
          "internalType": "string",
          "name": "zipFile",
          "type": "string"
        },
        {
          "internalType": "string",
          "name": "assuranceType",
          "type": "string"
        },
        {
          "internalType": "string",
          "name": "name",
          "type": "string"
        },
        {
          "internalType": "string",
          "name": "cin",
          "type": "string"
        },
        {
          "internalType": "string",
          "name": "marque",
          "type": "string"
        },
        {
          "internalType": "string",
          "name": "model",
          "type": "string"
        },
        {
          "internalType": "uint256",
          "name": "price",
          "type": "uint256"
        }
      ],
      "payable": false,
      "stateMutability": "view",
      "type": "function"
    },
    {
      "constant": false,
      "inputs": [
        {
          "internalType": "uint256",
          "name": "_dateDebut",
          "type": "uint256"
        },
        {
          "internalType": "uint256",
          "name": "_dateFin",
          "type": "uint256"
        },
        {
          "internalType": "string",
          "name": "_zipFile",
          "type": "string"
        },
        {
          "internalType": "string",
          "name": "_assuranceType",
          "type": "string"
        },
        {
          "internalType": "string",
          "name": "_name",
          "type": "string"
        },
        {
          "internalType": "string",
          "name": "_cin",
          "type": "string"
        },
        {
          "internalType": "string",
          "name": "_marque",
          "type": "string"
        },
        {
          "internalType": "string",
          "name": "_model",
          "type": "string"
        },
        {
          "internalType": "uint256",
          "name": "_price",
          "type": "uint256"
        }
      ],
      "name": "setAssurance",
      "outputs": [],
      "payable": false,
      "stateMutability": "nonpayable",
      "type": "function"
    },
    {
      "constant": true,
      "inputs": [],
      "name": "getAssurance",
      "outputs": [
        {
          "components": [
            {
              "internalType": "address",
              "name": "owner",
              "type": "address"
            },
            {
              "internalType": "uint256",
              "name": "dateDebut",
              "type": "uint256"
            },
            {
              "internalType": "uint256",
              "name": "dateFin",
              "type": "uint256"
            },
            {
              "internalType": "string",
              "name": "zipFile",
              "type": "string"
            },
            {
              "internalType": "string",
              "name": "assuranceType",
              "type": "string"
            },
            {
              "internalType": "string",
              "name": "name",
              "type": "string"
            },
            {
              "internalType": "string",
              "name": "cin",
              "type": "string"
            },
            {
              "internalType": "string",
              "name": "marque",
              "type": "string"
            },
            {
              "internalType": "string",
              "name": "model",
              "type": "string"
            },
            {
              "internalType": "uint256",
              "name": "price",
              "type": "uint256"
            }
          ],
          "internalType": "struct AssuranceContract.AssuranceData",
          "name": "",
          "type": "tuple"
        }
      ],
      "payable": false,
      "stateMutability": "view",
      "type": "function"
    }
  ],
  "bytecode": "0x608060405234801561001057600080fd5b50610ed7806100206000396000f3fe608060405234801561001057600080fd5b50600436106100415760003560e01c806309374437146100465780637eae92e91461006d57806383916f4614610082575b600080fd5b61004e610097565b6040516100649a99989796959493929190610cf3565b60405180910390f35b61008061007b366004610a59565b610419565b005b61008a610543565b6040516100649190610db2565b60008054600180546002805460038054604080516020601f6000199985161561010002999099019093169590950496870182900482028501820190528584526001600160a01b03909616969395919490918301828280156101395780601f1061010e57610100808354040283529160200191610139565b820191906000526020600020905b81548152906001019060200180831161011c57829003601f168201915b5050505060048301805460408051602060026001851615610100026000190190941693909304601f81018490048402820184019092528181529495949350908301828280156101c95780601f1061019e576101008083540402835291602001916101c9565b820191906000526020600020905b8154815290600101906020018083116101ac57829003601f168201915b5050505060058301805460408051602060026001851615610100026000190190941693909304601f81018490048402820184019092528181529495949350908301828280156102595780601f1061022e57610100808354040283529160200191610259565b820191906000526020600020905b81548152906001019060200180831161023c57829003601f168201915b5050505060068301805460408051602060026001851615610100026000190190941693909304601f81018490048402820184019092528181529495949350908301828280156102e95780601f106102be576101008083540402835291602001916102e9565b820191906000526020600020905b8154815290600101906020018083116102cc57829003601f168201915b5050505060078301805460408051602060026001851615610100026000190190941693909304601f81018490048402820184019092528181529495949350908301828280156103795780601f1061034e57610100808354040283529160200191610379565b820191906000526020600020905b81548152906001019060200180831161035c57829003601f168201915b5050505060088301805460408051602060026001851615610100026000190190941693909304601f81018490048402820184019092528181529495949350908301828280156104095780601f106103de57610100808354040283529160200191610409565b820191906000526020600020905b8154815290600101906020018083116103ec57829003601f168201915b505050505090806009015490508a565b60408051610140810182523380825260208083018d90529282018b9052606082018a90526080820189905260a0820188905260c0820187905260e0820186905261010082018590526101208201849052600080546001600160a01b031916909117815560018c905560028b905589519192909161049c91600391908c0190610900565b50608082015180516104b8916004840191602090910190610900565b5060a082015180516104d4916005840191602090910190610900565b5060c082015180516104f0916006840191602090910190610900565b5060e0820151805161050c916007840191602090910190610900565b506101008201518051610529916008840191602090910190610900565b506101208201518160090155905050505050505050505050565b61054b61097e565b6040805161014081018252600080546001600160a01b031682526001805460208085019190915260028054858701526003805487516101009582161595909502600019011691909104601f810183900483028401830190965285835293949293606086019390918301828280156106035780601f106105d857610100808354040283529160200191610603565b820191906000526020600020905b8154815290600101906020018083116105e657829003601f168201915b505050918352505060048201805460408051602060026001851615610100026000190190941693909304601f81018490048402820184019092528181529382019392918301828280156106975780601f1061066c57610100808354040283529160200191610697565b820191906000526020600020905b81548152906001019060200180831161067a57829003601f168201915b505050918352505060058201805460408051602060026001851615610100026000190190941693909304601f810184900484028201840190925281815293820193929183018282801561072b5780601f106107005761010080835404028352916020019161072b565b820191906000526020600020905b81548152906001019060200180831161070e57829003601f168201915b505050918352505060068201805460408051602060026001851615610100026000190190941693909304601f81018490048402820184019092528181529382019392918301828280156107bf5780601f10610794576101008083540402835291602001916107bf565b820191906000526020600020905b8154815290600101906020018083116107a257829003601f168201915b505050918352505060078201805460408051602060026001851615610100026000190190941693909304601f81018490048402820184019092528181529382019392918301828280156108535780601f1061082857610100808354040283529160200191610853565b820191906000526020600020905b81548152906001019060200180831161083657829003601f168201915b505050918352505060088201805460408051602060026001851615610100026000190190941693909304601f81018490048402820184019092528181529382019392918301828280156108e75780601f106108bc576101008083540402835291602001916108e7565b820191906000526020600020905b8154815290600101906020018083116108ca57829003601f168201915b5050505050815260200160098201548152505090505b90565b828054600181600116156101000203166002900490600052602060002090601f016020900481019282601f1061094157805160ff191683800117855561096e565b8280016001018555821561096e579182015b8281111561096e578251825591602001919060010190610953565b5061097a9291506109da565b5090565b60405180610140016040528060006001600160a01b031681526020016000815260200160008152602001606081526020016060815260200160608152602001606081526020016060815260200160608152602001600081525090565b6108fd91905b8082111561097a57600081556001016109e0565b600082601f830112610a0557600080fd5b8135610a18610a1382610df1565b610dca565b91508082526020830160208301858383011115610a3457600080fd5b610a3f838284610e37565b50505092915050565b8035610a5381610e7d565b92915050565b60008060008060008060008060006101208a8c031215610a7857600080fd5b6000610a848c8c610a48565b9950506020610a958c828d01610a48565b98505060408a013567ffffffffffffffff811115610ab257600080fd5b610abe8c828d016109f4565b97505060608a013567ffffffffffffffff811115610adb57600080fd5b610ae78c828d016109f4565b96505060808a013567ffffffffffffffff811115610b0457600080fd5b610b108c828d016109f4565b95505060a08a013567ffffffffffffffff811115610b2d57600080fd5b610b398c828d016109f4565b94505060c08a013567ffffffffffffffff811115610b5657600080fd5b610b628c828d016109f4565b93505060e08a013567ffffffffffffffff811115610b7f57600080fd5b610b8b8c828d016109f4565b925050610100610b9d8c828d01610a48565b9150509295985092959850929598565b610bb681610e26565b82525050565b6000610bc782610e19565b610bd18185610e1d565b9350610be1818560208601610e43565b610bea81610e73565b9093019392505050565b8051600090610140840190610c098582610bad565b506020830151610c1c6020860182610cea565b506040830151610c2f6040860182610cea565b5060608301518482036060860152610c478282610bbc565b91505060808301518482036080860152610c618282610bbc565b91505060a083015184820360a0860152610c7b8282610bbc565b91505060c083015184820360c0860152610c958282610bbc565b91505060e083015184820360e0860152610caf8282610bbc565b915050610100830151848203610100860152610ccb8282610bbc565b915050610120830151610ce2610120860182610cea565b509392505050565b610bb6816108fd565b6101408101610d02828d610bad565b610d0f602083018c610cea565b610d1c604083018b610cea565b8181036060830152610d2e818a610bbc565b90508181036080830152610d428189610bbc565b905081810360a0830152610d568188610bbc565b905081810360c0830152610d6a8187610bbc565b905081810360e0830152610d7e8186610bbc565b9050818103610100830152610d938185610bbc565b9050610da3610120830184610cea565b9b9a5050505050505050505050565b60208082528101610dc38184610bf4565b9392505050565b60405181810167ffffffffffffffff81118282101715610de957600080fd5b604052919050565b600067ffffffffffffffff821115610e0857600080fd5b506020601f91909101601f19160190565b5190565b90815260200190565b60006001600160a01b038216610a53565b82818337506000910152565b60005b83811015610e5e578181015183820152602001610e46565b83811115610e6d576000848401525b50505050565b601f01601f191690565b610e86816108fd565b8114610e9157600080fd5b5056fea365627a7a72315820b205631f1e3636f57a515da4f8a3381dc7919ecfaa117d982651e7c4c116dbfd6c6578706572696d656e74616cf564736f6c63430005100040",
  "source": "// SPDX-License-Identifier: MIT \r\npragma solidity >=0.4.0 <0.9.0;\r\n\r\npragma experimental ABIEncoderV2;\r\n\r\ncontract AssuranceContract {\r\n    struct AssuranceData {\r\n        address owner;\r\n        uint256 dateDebut;\r\n        uint256 dateFin;\r\n        string zipFile;\r\n        string assuranceType;\r\n        string name;\r\n        string cin;\r\n        string marque;\r\n        string model;\r\n        uint256 price;\r\n    }\r\n\r\n    AssuranceData public assuranceData;\r\n\r\n    function setAssurance(uint256 _dateDebut, uint256 _dateFin, string memory _zipFile, string memory _assuranceType, string memory _name, string memory _cin, string memory _marque, string memory _model, uint256 _price) public {\r\n        assuranceData = AssuranceData({\r\n            owner: msg.sender,\r\n            dateDebut: _dateDebut,\r\n            dateFin: _dateFin,\r\n            zipFile: _zipFile,\r\n            assuranceType: _assuranceType,\r\n            name: _name,\r\n            cin: _cin,\r\n            marque: _marque,\r\n            model: _model,\r\n            price: _price\r\n        });\r\n    }\r\n\r\n    function getAssurance() public view returns (AssuranceData memory) {\r\n        return assuranceData;\r\n    }\r\n}\r\n",
  "sourcePath": "C:\\Users\\Administrateur\\Desktop\\solidity\\BlockChain_Security\\contracts\\AssuranceContract.sol",
  "compiler": {
    "name": "solc",
    "version": "0.5.16+commit.9c3226ce.Emscripten.clang"
  },
  "schemaVersion": "3.4.16",
  "updatedAt": "2024-01-23T19:33:32.399Z",
  "devdoc": {
    "methods": {}
  },
  "userdoc": {
    "methods": {}
  }
}