{
  "contractName": "AssuranceContract",
  "abi": [
    {
      "constant": false,
      "inputs": [
        {
          "internalType": "uint256",
          "name": "_dateDubut",
          "type": "uint256"
        },
        {
          "internalType": "uint256",
          "name": "_dateFin",
          "type": "uint256"
        },
        {
          "internalType": "string",
          "name": "_zipFile",
          "type": "string"
        },
        {
          "internalType": "string",
          "name": "_assuranceType",
          "type": "string"
        },
        {
          "internalType": "string",
          "name": "_name",
          "type": "string"
        },
        {
          "internalType": "string",
          "name": "_cin",
          "type": "string"
        },
        {
          "internalType": "string",
          "name": "_marque",
          "type": "string"
        },
        {
          "internalType": "string",
          "name": "_model",
          "type": "string"
        }
      ],
      "name": "setAssurance",
      "outputs": [],
      "payable": false,
      "stateMutability": "nonpayable",
      "type": "function"
    },
    {
      "constant": true,
      "inputs": [],
      "name": "getAssurance",
      "outputs": [
        {
          "internalType": "address",
          "name": "_owner",
          "type": "address"
        },
        {
          "internalType": "uint256",
          "name": "_dateDubut",
          "type": "uint256"
        },
        {
          "internalType": "uint256",
          "name": "_dateFin",
          "type": "uint256"
        },
        {
          "internalType": "string",
          "name": "_zipFile",
          "type": "string"
        },
        {
          "internalType": "string",
          "name": "_assuranceType",
          "type": "string"
        },
        {
          "internalType": "string",
          "name": "_name",
          "type": "string"
        },
        {
          "internalType": "string",
          "name": "_cin",
          "type": "string"
        },
        {
          "internalType": "string",
          "name": "_marque",
          "type": "string"
        },
        {
          "internalType": "string",
          "name": "_model",
          "type": "string"
        }
      ],
      "payable": false,
      "stateMutability": "view",
      "type": "function"
    }
  ],
  "bytecode": "0x608060405234801561001057600080fd5b50610b3c806100206000396000f3fe608060405234801561001057600080fd5b50600436106100365760003560e01c806366818a671461003b57806383916f4614610387575b600080fd5b610385600480360361010081101561005257600080fd5b813591602081013591810190606081016040820135600160201b81111561007857600080fd5b82018360208201111561008a57600080fd5b803590602001918460018302840111600160201b831117156100ab57600080fd5b91908080601f0160208091040260200160405190810160405280939291908181526020018383808284376000920191909152509295949360208101935035915050600160201b8111156100fd57600080fd5b82018360208201111561010f57600080fd5b803590602001918460018302840111600160201b8311171561013057600080fd5b91908080601f0160208091040260200160405190810160405280939291908181526020018383808284376000920191909152509295949360208101935035915050600160201b81111561018257600080fd5b82018360208201111561019457600080fd5b803590602001918460018302840111600160201b831117156101b557600080fd5b91908080601f0160208091040260200160405190810160405280939291908181526020018383808284376000920191909152509295949360208101935035915050600160201b81111561020757600080fd5b82018360208201111561021957600080fd5b803590602001918460018302840111600160201b8311171561023a57600080fd5b91908080601f0160208091040260200160405190810160405280939291908181526020018383808284376000920191909152509295949360208101935035915050600160201b81111561028c57600080fd5b82018360208201111561029e57600080fd5b803590602001918460018302840111600160201b831117156102bf57600080fd5b91908080601f0160208091040260200160405190810160405280939291908181526020018383808284376000920191909152509295949360208101935035915050600160201b81111561031157600080fd5b82018360208201111561032357600080fd5b803590602001918460018302840111600160201b8311171561034457600080fd5b91908080601f01602080910402602001604051908101604052809392919081815260200183838082843760009201919091525092955061062c945050505050565b005b61038f6106b8565b604051808a6001600160a01b03166001600160a01b0316815260200189815260200188815260200180602001806020018060200180602001806020018060200187810387528d818151815260200191508051906020019080838360005b838110156104045781810151838201526020016103ec565b50505050905090810190601f1680156104315780820380516001836020036101000a031916815260200191505b5087810386528c5181528c516020918201918e019080838360005b8381101561046457818101518382015260200161044c565b50505050905090810190601f1680156104915780820380516001836020036101000a031916815260200191505b5087810385528b5181528b516020918201918d019080838360005b838110156104c45781810151838201526020016104ac565b50505050905090810190601f1680156104f15780820380516001836020036101000a031916815260200191505b5087810384528a5181528a516020918201918c019080838360005b8381101561052457818101518382015260200161050c565b50505050905090810190601f1680156105515780820380516001836020036101000a031916815260200191505b5087810383528951815289516020918201918b019080838360005b8381101561058457818101518382015260200161056c565b50505050905090810190601f1680156105b15780820380516001836020036101000a031916815260200191505b5087810382528851815288516020918201918a019080838360005b838110156105e45781810151838201526020016105cc565b50505050905090810190601f1680156106115780820380516001836020036101000a031916815260200191505b509f5050505050505050505050505050505060405180910390f35b600188905560028790558551610649906003906020890190610a6c565b50845161065d906004906020880190610a6c565b508351610671906005906020870190610a6c565b508251610685906006906020860190610a6c565b508151610699906007906020850190610a6c565b5080516106ad906008906020840190610a6c565b505050505050505050565b60008060006060806060806060806000809054906101000a90046001600160a01b0316600154600254600360046005600660076008858054600181600116156101000203166002900480601f0160208091040260200160405190810160405280929190818152602001828054600181600116156101000203166002900480156107825780601f1061075757610100808354040283529160200191610782565b820191906000526020600020905b81548152906001019060200180831161076557829003601f168201915b5050885460408051602060026001851615610100026000190190941693909304601f8101849004840282018401909252818152959b508a9450925084019050828280156108105780601f106107e557610100808354040283529160200191610810565b820191906000526020600020905b8154815290600101906020018083116107f357829003601f168201915b5050875460408051602060026001851615610100026000190190941693909304601f8101849004840282018401909252818152959a508994509250840190508282801561089e5780601f106108735761010080835404028352916020019161089e565b820191906000526020600020905b81548152906001019060200180831161088157829003601f168201915b5050865460408051602060026001851615610100026000190190941693909304601f81018490048402820184019092528181529599508894509250840190508282801561092c5780601f106109015761010080835404028352916020019161092c565b820191906000526020600020905b81548152906001019060200180831161090f57829003601f168201915b5050855460408051602060026001851615610100026000190190941693909304601f8101849004840282018401909252818152959850879450925084019050828280156109ba5780601f1061098f576101008083540402835291602001916109ba565b820191906000526020600020905b81548152906001019060200180831161099d57829003601f168201915b5050845460408051602060026001851615610100026000190190941693909304601f810184900484028201840190925281815295975086945092508401905082828015610a485780601f10610a1d57610100808354040283529160200191610a48565b820191906000526020600020905b815481529060010190602001808311610a2b57829003601f168201915b50505050509050985098509850985098509850985098509850909192939495969798565b828054600181600116156101000203166002900490600052602060002090601f016020900481019282601f10610aad57805160ff1916838001178555610ada565b82800160010185558215610ada579182015b82811115610ada578251825591602001919060010190610abf565b50610ae6929150610aea565b5090565b610b0491905b80821115610ae65760008155600101610af0565b9056fea265627a7a72315820a7e6a9bc780f293bdc4784044142c088429ce66486921c6a2af7c79361f0a96864736f6c63430005100032",
  "source": "// SPDX-License-Identifier: MIT \r\npragma solidity >=0.4.0 <0.9.0;\r\n\r\ncontract AssuranceContract {\r\n    address owner;\r\n    uint256 dateDebut;\r\n    uint256 dateFin;\r\n    string zipFile;\r\n    string assuranceType;\r\n    string name;\r\n    string cin;\r\n    string marque;\r\n    string model;\r\n\r\n    function setAssurance(uint256 _dateDubut,uint256 _dateFin,string memory _zipFile,string memory _assuranceType,string memory _name,string memory _cin,string memory _marque,string memory _model) public{\r\n        dateDebut=_dateDubut;\r\n        dateFin=_dateFin;\r\n        zipFile=_zipFile;\r\n        assuranceType=_assuranceType;\r\n        name=_name;\r\n        cin=_cin;\r\n        marque=_marque;\r\n        model=_model;\r\n    }\r\n    function getAssurance() public view returns(address _owner,uint256 _dateDubut,uint256 _dateFin,string memory _zipFile,string memory _assuranceType,string memory _name,string memory _cin,string memory _marque,string memory _model){\r\n        return(owner,dateDebut,dateFin,zipFile,assuranceType,name,cin,marque,model);\r\n    }\r\n}",
  "sourcePath": "C:\\Users\\Administrateur\\Desktop\\solidity\\BlockChain_Security\\contracts\\AssuranceContract.sol",
  "compiler": {
    "name": "solc",
    "version": "0.5.16+commit.9c3226ce.Emscripten.clang"
  },
  "schemaVersion": "3.4.16",
  "updatedAt": "2024-01-18T15:12:26.192Z",
  "networkType": "ethereum",
  "devdoc": {
    "methods": {}
  },
  "userdoc": {
    "methods": {}
  }
}