{
  "contractName": "AssuranceContract",
  "abi": [
    {
      "constant": true,
      "inputs": [],
      "name": "assuranceData",
      "outputs": [
        {
          "internalType": "address",
          "name": "owner",
          "type": "address"
        },
        {
          "internalType": "string",
          "name": "dateDebut",
          "type": "string"
        },
        {
          "internalType": "string",
          "name": "dateFin",
          "type": "string"
        },
        {
          "internalType": "string",
          "name": "zipFile",
          "type": "string"
        },
        {
          "internalType": "string",
          "name": "assuranceType",
          "type": "string"
        },
        {
          "internalType": "string",
          "name": "name",
          "type": "string"
        },
        {
          "internalType": "string",
          "name": "cin",
          "type": "string"
        },
        {
          "internalType": "string",
          "name": "marque",
          "type": "string"
        },
        {
          "internalType": "string",
          "name": "model",
          "type": "string"
        },
        {
          "internalType": "uint256",
          "name": "price",
          "type": "uint256"
        }
      ],
      "payable": false,
      "stateMutability": "view",
      "type": "function"
    },
    {
      "constant": false,
      "inputs": [
        {
          "internalType": "string",
          "name": "_dateDebut",
          "type": "string"
        },
        {
          "internalType": "string",
          "name": "_dateFin",
          "type": "string"
        },
        {
          "internalType": "string",
          "name": "_zipFile",
          "type": "string"
        },
        {
          "internalType": "string",
          "name": "_assuranceType",
          "type": "string"
        },
        {
          "internalType": "string",
          "name": "_name",
          "type": "string"
        },
        {
          "internalType": "string",
          "name": "_cin",
          "type": "string"
        },
        {
          "internalType": "string",
          "name": "_marque",
          "type": "string"
        },
        {
          "internalType": "string",
          "name": "_model",
          "type": "string"
        },
        {
          "internalType": "uint256",
          "name": "_price",
          "type": "uint256"
        }
      ],
      "name": "setAssurance",
      "outputs": [],
      "payable": false,
      "stateMutability": "nonpayable",
      "type": "function"
    },
    {
      "constant": true,
      "inputs": [],
      "name": "getAssurance",
      "outputs": [
        {
          "components": [
            {
              "internalType": "address",
              "name": "owner",
              "type": "address"
            },
            {
              "internalType": "string",
              "name": "dateDebut",
              "type": "string"
            },
            {
              "internalType": "string",
              "name": "dateFin",
              "type": "string"
            },
            {
              "internalType": "string",
              "name": "zipFile",
              "type": "string"
            },
            {
              "internalType": "string",
              "name": "assuranceType",
              "type": "string"
            },
            {
              "internalType": "string",
              "name": "name",
              "type": "string"
            },
            {
              "internalType": "string",
              "name": "cin",
              "type": "string"
            },
            {
              "internalType": "string",
              "name": "marque",
              "type": "string"
            },
            {
              "internalType": "string",
              "name": "model",
              "type": "string"
            },
            {
              "internalType": "uint256",
              "name": "price",
              "type": "uint256"
            }
          ],
          "internalType": "struct AssuranceContract.AssuranceData",
          "name": "",
          "type": "tuple"
        }
      ],
      "payable": false,
      "stateMutability": "view",
      "type": "function"
    }
  ],
  "bytecode": "0x608060405234801561001057600080fd5b5061117a806100206000396000f3fe608060405234801561001057600080fd5b50600436106100415760003560e01c80630937443714610046578063420c783b1461006d57806383916f4614610082575b600080fd5b61004e610097565b6040516100649a99989796959493929190610f88565b60405180910390f35b61008061007b366004610cb1565b61052f565b005b61008a610687565b6040516100649190611055565b6000805460018054604080516020600261010085871615026000190190941693909304601f81018490048402820184019092528181526001600160a01b039094169493929183018282801561012d5780601f106101025761010080835404028352916020019161012d565b820191906000526020600020905b81548152906001019060200180831161011057829003601f168201915b50505060028085018054604080516020601f60001961010060018716150201909416959095049283018590048502810185019091528181529596959450909250908301828280156101bf5780601f10610194576101008083540402835291602001916101bf565b820191906000526020600020905b8154815290600101906020018083116101a257829003601f168201915b5050505060038301805460408051602060026001851615610100026000190190941693909304601f810184900484028201840190925281815294959493509083018282801561024f5780601f106102245761010080835404028352916020019161024f565b820191906000526020600020905b81548152906001019060200180831161023257829003601f168201915b5050505060048301805460408051602060026001851615610100026000190190941693909304601f81018490048402820184019092528181529495949350908301828280156102df5780601f106102b4576101008083540402835291602001916102df565b820191906000526020600020905b8154815290600101906020018083116102c257829003601f168201915b5050505060058301805460408051602060026001851615610100026000190190941693909304601f810184900484028201840190925281815294959493509083018282801561036f5780601f106103445761010080835404028352916020019161036f565b820191906000526020600020905b81548152906001019060200180831161035257829003601f168201915b5050505060068301805460408051602060026001851615610100026000190190941693909304601f81018490048402820184019092528181529495949350908301828280156103ff5780601f106103d4576101008083540402835291602001916103ff565b820191906000526020600020905b8154815290600101906020018083116103e257829003601f168201915b5050505060078301805460408051602060026001851615610100026000190190941693909304601f810184900484028201840190925281815294959493509083018282801561048f5780601f106104645761010080835404028352916020019161048f565b820191906000526020600020905b81548152906001019060200180831161047257829003601f168201915b5050505060088301805460408051602060026001851615610100026000190190941693909304601f810184900484028201840190925281815294959493509083018282801561051f5780601f106104f45761010080835404028352916020019161051f565b820191906000526020600020905b81548152906001019060200180831161050257829003601f168201915b505050505090806009015490508a565b60408051610140810182523380825260208083018d90529282018b9052606082018a90526080820189905260a0820188905260c0820187905260e0820186905261010082018590526101208201849052600080546001600160a01b03191690911781558b51919290916105a891600191908e0190610b58565b50604082015180516105c4916002840191602090910190610b58565b50606082015180516105e0916003840191602090910190610b58565b50608082015180516105fc916004840191602090910190610b58565b5060a08201518051610618916005840191602090910190610b58565b5060c08201518051610634916006840191602090910190610b58565b5060e08201518051610650916007840191602090910190610b58565b50610100820151805161066d916008840191602090910190610b58565b506101208201518160090155905050505050505050505050565b61068f610bd6565b6040805161014081018252600080546001600160a01b031682526001805484516020600261010084861615026000190190931692909204601f810183900483028201830190965285815293949293818601939092918301828280156107355780601f1061070a57610100808354040283529160200191610735565b820191906000526020600020905b81548152906001019060200180831161071857829003601f168201915b5050509183525050600282810180546040805160206001841615610100026000190190931694909404601f810183900483028501830190915280845293810193908301828280156107c75780601f1061079c576101008083540402835291602001916107c7565b820191906000526020600020905b8154815290600101906020018083116107aa57829003601f168201915b505050918352505060038201805460408051602060026001851615610100026000190190941693909304601f810184900484028201840190925281815293820193929183018282801561085b5780601f106108305761010080835404028352916020019161085b565b820191906000526020600020905b81548152906001019060200180831161083e57829003601f168201915b505050918352505060048201805460408051602060026001851615610100026000190190941693909304601f81018490048402820184019092528181529382019392918301828280156108ef5780601f106108c4576101008083540402835291602001916108ef565b820191906000526020600020905b8154815290600101906020018083116108d257829003601f168201915b505050918352505060058201805460408051602060026001851615610100026000190190941693909304601f81018490048402820184019092528181529382019392918301828280156109835780601f1061095857610100808354040283529160200191610983565b820191906000526020600020905b81548152906001019060200180831161096657829003601f168201915b505050918352505060068201805460408051602060026001851615610100026000190190941693909304601f8101849004840282018401909252818152938201939291830182828015610a175780601f106109ec57610100808354040283529160200191610a17565b820191906000526020600020905b8154815290600101906020018083116109fa57829003601f168201915b505050918352505060078201805460408051602060026001851615610100026000190190941693909304601f8101849004840282018401909252818152938201939291830182828015610aab5780601f10610a8057610100808354040283529160200191610aab565b820191906000526020600020905b815481529060010190602001808311610a8e57829003601f168201915b505050918352505060088201805460408051602060026001851615610100026000190190941693909304601f8101849004840282018401909252818152938201939291830182828015610b3f5780601f10610b1457610100808354040283529160200191610b3f565b820191906000526020600020905b815481529060010190602001808311610b2257829003601f168201915b5050505050815260200160098201548152505090505b90565b828054600181600116156101000203166002900490600052602060002090601f016020900481019282601f10610b9957805160ff1916838001178555610bc6565b82800160010185558215610bc6579182015b82811115610bc6578251825591602001919060010190610bab565b50610bd2929150610c32565b5090565b60405180610140016040528060006001600160a01b031681526020016060815260200160608152602001606081526020016060815260200160608152602001606081526020016060815260200160608152602001600081525090565b610b5591905b80821115610bd25760008155600101610c38565b600082601f830112610c5d57600080fd5b8135610c70610c6b82611094565b61106d565b91508082526020830160208301858383011115610c8c57600080fd5b610c978382846110da565b50505092915050565b8035610cab81611120565b92915050565b60008060008060008060008060006101208a8c031215610cd057600080fd5b893567ffffffffffffffff811115610ce757600080fd5b610cf38c828d01610c4c565b99505060208a013567ffffffffffffffff811115610d1057600080fd5b610d1c8c828d01610c4c565b98505060408a013567ffffffffffffffff811115610d3957600080fd5b610d458c828d01610c4c565b97505060608a013567ffffffffffffffff811115610d6257600080fd5b610d6e8c828d01610c4c565b96505060808a013567ffffffffffffffff811115610d8b57600080fd5b610d978c828d01610c4c565b95505060a08a013567ffffffffffffffff811115610db457600080fd5b610dc08c828d01610c4c565b94505060c08a013567ffffffffffffffff811115610ddd57600080fd5b610de98c828d01610c4c565b93505060e08a013567ffffffffffffffff811115610e0657600080fd5b610e128c828d01610c4c565b925050610100610e248c828d01610ca0565b9150509295985092959850929598565b610e3d816110c9565b82525050565b6000610e4e826110bc565b610e5881856110c0565b9350610e688185602086016110e6565b610e7181611116565b9093019392505050565b8051600090610140840190610e908582610e34565b5060208301518482036020860152610ea88282610e43565b91505060408301518482036040860152610ec28282610e43565b91505060608301518482036060860152610edc8282610e43565b91505060808301518482036080860152610ef68282610e43565b91505060a083015184820360a0860152610f108282610e43565b91505060c083015184820360c0860152610f2a8282610e43565b91505060e083015184820360e0860152610f448282610e43565b915050610100830151848203610100860152610f608282610e43565b915050610120830151610f77610120860182610f7f565b509392505050565b610e3d81610b55565b6101408101610f97828d610e34565b8181036020830152610fa9818c610e43565b90508181036040830152610fbd818b610e43565b90508181036060830152610fd1818a610e43565b90508181036080830152610fe58189610e43565b905081810360a0830152610ff98188610e43565b905081810360c083015261100d8187610e43565b905081810360e08301526110218186610e43565b90508181036101008301526110368185610e43565b9050611046610120830184610f7f565b9b9a5050505050505050505050565b602080825281016110668184610e7b565b9392505050565b60405181810167ffffffffffffffff8111828210171561108c57600080fd5b604052919050565b600067ffffffffffffffff8211156110ab57600080fd5b506020601f91909101601f19160190565b5190565b90815260200190565b60006001600160a01b038216610cab565b82818337506000910152565b60005b838110156111015781810151838201526020016110e9565b83811115611110576000848401525b50505050565b601f01601f191690565b61112981610b55565b811461113457600080fd5b5056fea365627a7a723158203917da7d40ccb23c5f6d6459c87ee9b4636a70c0c1e5c84d79b03eef0f49fe586c6578706572696d656e74616cf564736f6c63430005100040",
  "source": "// SPDX-License-Identifier: MIT \r\npragma solidity >=0.4.0 <0.9.0;\r\n\r\npragma experimental ABIEncoderV2;\r\n\r\ncontract AssuranceContract {\r\n    struct AssuranceData {\r\n        address owner;\r\n        string dateDebut;\r\n        string dateFin;\r\n        string zipFile;\r\n        string assuranceType;\r\n        string name;\r\n        string cin;\r\n        string marque;\r\n        string model;\r\n        uint256 price;\r\n    }\r\n\r\n    AssuranceData public assuranceData;\r\n\r\n    function setAssurance(string memory _dateDebut, string memory _dateFin, string memory _zipFile, string memory _assuranceType, string memory _name, string memory _cin, string memory _marque, string memory _model, uint256 _price) public {\r\n        assuranceData = AssuranceData({\r\n            owner: msg.sender,\r\n            dateDebut: _dateDebut,\r\n            dateFin: _dateFin,\r\n            zipFile: _zipFile,\r\n            assuranceType: _assuranceType,\r\n            name: _name,\r\n            cin: _cin,\r\n            marque: _marque,\r\n            model: _model,\r\n            price: _price\r\n        });\r\n    }\r\n\r\n    function getAssurance() public view returns (AssuranceData memory) {\r\n        return assuranceData;\r\n    }\r\n}\r\n",
  "sourcePath": "C:\\Users\\Administrateur\\Desktop\\solidity\\BlockChain_Security\\contracts\\AssuranceZOHR.sol",
  "compiler": {
    "name": "solc",
    "version": "0.5.16+commit.9c3226ce.Emscripten.clang"
  },
  "schemaVersion": "3.4.16",
  "updatedAt": "2024-01-23T23:58:39.137Z",
  "devdoc": {
    "methods": {}
  },
  "userdoc": {
    "methods": {}
  }
}