{
  "contractName": "BookStore",
  "abi": [
    {
      "constant": false,
      "inputs": [
        {
          "internalType": "string",
          "name": "_fullname",
          "type": "string"
        },
        {
          "internalType": "string",
          "name": "_description",
          "type": "string"
        },
        {
          "internalType": "uint256",
          "name": "_price",
          "type": "uint256"
        }
      ],
      "name": "sellBook",
      "outputs": [],
      "payable": false,
      "stateMutability": "nonpayable",
      "type": "function"
    },
    {
      "constant": true,
      "inputs": [],
      "name": "getBook",
      "outputs": [
        {
          "internalType": "address",
          "name": "",
          "type": "address"
        },
        {
          "internalType": "string",
          "name": "",
          "type": "string"
        },
        {
          "internalType": "string",
          "name": "",
          "type": "string"
        },
        {
          "internalType": "uint256",
          "name": "",
          "type": "uint256"
        }
      ],
      "payable": false,
      "stateMutability": "view",
      "type": "function"
    }
  ],
  "bytecode": "0x608060405234801561001057600080fd5b5061058a806100206000396000f3fe608060405234801561001057600080fd5b50600436106100365760003560e01c80633b0c197e1461003b578063cbb458a914610164575b600080fd5b6100436102c0565b604051808573ffffffffffffffffffffffffffffffffffffffff1673ffffffffffffffffffffffffffffffffffffffff1681526020018060200180602001848152602001838103835286818151815260200191508051906020019080838360005b838110156100bf5780820151818401526020810190506100a4565b50505050905090810190601f1680156100ec5780820380516001836020036101000a031916815260200191505b50838103825285818151815260200191508051906020019080838360005b8381101561012557808201518184015260208101905061010a565b50505050905090810190601f1680156101525780820380516001836020036101000a031916815260200191505b50965050505050505060405180910390f35b6102be6004803603606081101561017a57600080fd5b810190808035906020019064010000000081111561019757600080fd5b8201836020820111156101a957600080fd5b803590602001918460018302840111640100000000831117156101cb57600080fd5b91908080601f016020809104026020016040519081016040528093929190818152602001838380828437600081840152601f19601f8201169050808301925050505050505091929192908035906020019064010000000081111561022e57600080fd5b82018360208201111561024057600080fd5b8035906020019184600183028401116401000000008311171561026257600080fd5b91908080601f016020809104026020016040519081016040528093929190818152602001838380828437600081840152601f19601f82011690508083019250505050505050919291929080359060200190929190505050610436565b005b600060608060008060009054906101000a900473ffffffffffffffffffffffffffffffffffffffff1660016002600354828054600181600116156101000203166002900480601f0160208091040260200160405190810160405280929190818152602001828054600181600116156101000203166002900480156103855780601f1061035a57610100808354040283529160200191610385565b820191906000526020600020905b81548152906001019060200180831161036857829003601f168201915b50505050509250818054600181600116156101000203166002900480601f0160208091040260200160405190810160405280929190818152602001828054600181600116156101000203166002900480156104215780601f106103f657610100808354040283529160200191610421565b820191906000526020600020905b81548152906001019060200180831161040457829003601f168201915b50505050509150935093509350935090919293565b336000806101000a81548173ffffffffffffffffffffffffffffffffffffffff021916908373ffffffffffffffffffffffffffffffffffffffff160217905550826001908051906020019061048c9291906104b0565b5081600290805190602001906104a39291906104b0565b5080600381905550505050565b828054600181600116156101000203166002900490600052602060002090601f016020900481019282601f106104f157805160ff191683800117855561051f565b8280016001018555821561051f579182015b8281111561051e578251825591602001919060010190610503565b5b50905061052c9190610530565b5090565b61055291905b8082111561054e576000816000905550600101610536565b5090565b9056fea265627a7a72315820f088072177d84d348ed93a8cf9806d9e3e4b8b3837677a0301d01388b8aece4264736f6c63430005100032",
  "source": "// SPDX-License-Identifier: MIT\r\npragma solidity >=0.4.22 <0.9.0;\r\n\r\ncontract BookStore {\r\n    address sender;\r\n    string fullname;\r\n    string description;\r\n    uint price;\r\n    \r\n    function sellBook(string memory _fullname,string memory _description,uint _price) public{\r\n        sender=msg.sender;\r\n        fullname=_fullname;\r\n        description=_description;\r\n        price=_price;\r\n    }\r\n    function getBook() public view returns(address,string memory,string memory,uint){\r\n        return(sender,fullname,description,price);\r\n    }\r\n}\r\n",
  "sourcePath": "C:\\Users\\Administrateur\\Desktop\\solidity\\myProject\\contracts\\BookStore.sol",
  "compiler": {
    "name": "solc",
    "version": "0.5.16+commit.9c3226ce.Emscripten.clang"
  },
  "schemaVersion": "3.4.16",
  "updatedAt": "2024-01-03T18:27:33.623Z",
  "networkType": "ethereum",
  "devdoc": {
    "methods": {}
  },
  "userdoc": {
    "methods": {}
  }
}