{
  "contractName": "BookStore",
  "abi": [
    {
      "inputs": [
        {
          "internalType": "string",
          "name": "_fullname",
          "type": "string"
        },
        {
          "internalType": "string",
          "name": "_description",
          "type": "string"
        },
        {
          "internalType": "uint256",
          "name": "_price",
          "type": "uint256"
        }
      ],
      "name": "sellBook",
      "outputs": [],
      "stateMutability": "nonpayable",
      "type": "function"
    },
    {
      "inputs": [],
      "name": "getBook",
      "outputs": [
        {
          "internalType": "address",
          "name": "",
          "type": "address"
        },
        {
          "internalType": "string",
          "name": "",
          "type": "string"
        },
        {
          "internalType": "string",
          "name": "",
          "type": "string"
        },
        {
          "internalType": "uint256",
          "name": "",
          "type": "uint256"
        }
      ],
      "stateMutability": "view",
      "type": "function",
      "constant": true
    }
  ],
  "bytecode": "0x608060405234801561001057600080fd5b506106c7806100206000396000f3fe608060405234801561001057600080fd5b50600436106100365760003560e01c80633b0c197e1461003b578063cbb458a91461005c575b600080fd5b610043610078565b60405161005394939291906103de565b60405180910390f35b610076600480360381019061007191906105a6565b6101ce565b005b600060608060008060009054906101000a900473ffffffffffffffffffffffffffffffffffffffff16600160026003548280546100b490610660565b80601f01602080910402602001604051908101604052809291908181526020018280546100e090610660565b801561012d5780601f106101025761010080835404028352916020019161012d565b820191906000526020600020905b81548152906001019060200180831161011057829003601f168201915b5050505050925081805461014090610660565b80601f016020809104026020016040519081016040528092919081815260200182805461016c90610660565b80156101b95780601f1061018e576101008083540402835291602001916101b9565b820191906000526020600020905b81548152906001019060200180831161019c57829003601f168201915b50505050509150935093509350935090919293565b336000806101000a81548173ffffffffffffffffffffffffffffffffffffffff021916908373ffffffffffffffffffffffffffffffffffffffff1602179055508260019080519060200190610224929190610248565b50816002908051906020019061023b929190610248565b5080600381905550505050565b82805461025490610660565b90600052602060002090601f01602090048101928261027657600085556102bd565b82601f1061028f57805160ff19168380011785556102bd565b828001600101855582156102bd579182015b828111156102bc5782518255916020019190600101906102a1565b5b5090506102ca91906102ce565b5090565b5b808211156102e75760008160009055506001016102cf565b5090565b600073ffffffffffffffffffffffffffffffffffffffff82169050919050565b6000610316826102eb565b9050919050565b6103268161030b565b82525050565b600081519050919050565b600082825260208201905092915050565b60005b8381101561036657808201518184015260208101905061034b565b83811115610375576000848401525b50505050565b6000601f19601f8301169050919050565b60006103978261032c565b6103a18185610337565b93506103b1818560208601610348565b6103ba8161037b565b840191505092915050565b6000819050919050565b6103d8816103c5565b82525050565b60006080820190506103f3600083018761031d565b8181036020830152610405818661038c565b90508181036040830152610419818561038c565b905061042860608301846103cf565b95945050505050565b6000604051905090565b600080fd5b600080fd5b600080fd5b600080fd5b7f4e487b7100000000000000000000000000000000000000000000000000000000600052604160045260246000fd5b6104878261037b565b810181811067ffffffffffffffff821117156104a6576104a561044f565b5b80604052505050565b60006104b9610431565b90506104c5828261047e565b919050565b600067ffffffffffffffff8211156104e5576104e461044f565b5b6104ee8261037b565b9050602081019050919050565b82818337600083830152505050565b600061051d610518846104ca565b6104af565b9050828152602081018484840111156105395761053861044a565b5b6105448482856104fb565b509392505050565b600082601f83011261056157610560610445565b5b813561057184826020860161050a565b91505092915050565b610583816103c5565b811461058e57600080fd5b50565b6000813590506105a08161057a565b92915050565b6000806000606084860312156105bf576105be61043b565b5b600084013567ffffffffffffffff8111156105dd576105dc610440565b5b6105e98682870161054c565b935050602084013567ffffffffffffffff81111561060a57610609610440565b5b6106168682870161054c565b925050604061062786828701610591565b9150509250925092565b7f4e487b7100000000000000000000000000000000000000000000000000000000600052602260045260246000fd5b6000600282049050600182168061067857607f821691505b60208210810361068b5761068a610631565b5b5091905056fea2646970667358221220ea51bef2675eaaf5215710578ab8d6a4109974eef272fff206e1d519ebf427f064736f6c634300080d0033",
  "immutableReferences": {},
  "source": "// SPDX-License-Identifier: MIT\r\npragma solidity >=0.4.22 <0.9.0;\r\n\r\ncontract BookStore {\r\n    address sender;\r\n    string fullname;\r\n    string description;\r\n    uint price;\r\n    \r\n    function sellBook(string memory _fullname,string memory _description,uint _price) public{\r\n        sender=msg.sender;\r\n        fullname=_fullname;\r\n        description=_description;\r\n        price=_price;\r\n    }\r\n    function getBook() public view returns(address,string memory,string memory,uint){\r\n        return(sender,fullname,description,price);\r\n    }\r\n}\r\n",
  "sourcePath": "C:\\Users\\Administrateur\\Desktop\\solidity\\myTruffle\\contracts\\BookStore.sol",
  "compiler": {
    "name": "solc",
    "version": "0.8.13+commit.abaa5c0e.Emscripten.clang"
  },
  "schemaVersion": "3.4.16",
  "updatedAt": "2023-12-25T11:30:33.361Z",
  "networkType": "ethereum",
  "devdoc": {
    "kind": "dev",
    "methods": {},
    "version": 1
  },
  "userdoc": {
    "kind": "user",
    "methods": {},
    "version": 1
  }
}